:1000000014C03BC03AC039C038C037C036C035C054
:1000100034C033C032C031C030C02FC02EC00060E9
:100020000061800061006200010811241FBECFE55D
:10003000D2E0DEBFCDBFEEE1F0E040E017C0B59109
:10004000A59135912591059107FD0CC0959185915C
:10005000EF01F92FE82F05900D92A217B307D9F7FA
:10006000FE0104C01D92A217B307E1F7EA32F407BC
:0A00700031F704D041C0F894FFCF2F
:02007A00C2CFF3
:10007C0017BA61E670E080E841E003D0809360003D
:02008C00FFCFA4
:10008E0061157105810551F14423A1F0413041F50F
:10009E0038B3FB01949187FD9081292F277081E061
:1000AE0090E002C0880F991F2A95E2F7832B88BB38
:1000BE0081E0089528B3FB01982F849197FD8081EC
:1000CE00382F377081E090E002C0880F991F3A9563
:1000DE00E2F78095822388BB81E0089580E0089541
:0400EE0080E0089511
:0200F20008956F
:0200F40008956D
:0200F60008956B
:0E00F800EC01FCDFFADFCE01FADFCE0100D012
:02010600B7DF61
:0101080008EE
:00000001FF
